:080000000C9473000C94000045
:100008000C9400000C9400000C9400000C94000068
:100018000C9400000C9400000C9400000C94000058
:100028000C9400000C9400000C9400000C94000048
:100038000C9400000C9485010C9400000C940000B2
:100048000C94A6000C9400000C9400000C94000082
:100058000C9400000C9400000C9400000C94000018
:100068000C9400000C9400000C9400000C94000008
:100078000C9400000C9400000C9400000C940000F8
:100088000C9400001027E80364000A000100001027
:100098000001100001000000000005000000000041
:1000A80000004552524F5232006572726F72310031
:1000B80025303264200080C0010002009E00070045
:1000C8000005AA0007000705AA0007000E05B100F1
:1000D8000A000400A00002001F05BE000000F894FA
:1000E800EE27ECBBF1E0F5BFE5BFE0936C00F8E16B
:1000F800F1BDE1BD8DE0A2E0BB27ED938A95E9F75C
:1001080080E090E1A0E0B1E0ED930197E9F7E0EC41
:10011800F0E085919591009761F0A591B5910590D2
:100128001590BF01F00105900D920197E1F7FB01D1
:10013800F0CF8BBFEFEFEDBFE0E1EEBFC0E0D5E061
:100148000C94CB01EA93FA93EFB7EA931A930A93C4
:100158001BB10CB1E12FEC71B1F40D3091F0EB2D26
:10016800B394F0E0E95EFA4F0083E8E0EB1509F498
:10017800BB24D394E8E0ED1519F4DD24689421F844
:1001880002C0689420F809911991E991EFBFF9919B
:10019800E99118951A93DD20F1F3EA2DA394F0E084
:1001A800E95EFA4F1081E8E0EA1509F4AA24F89408
:1001B800DA947894E12F19910895E0916500E3604D
:1001C800E0936500E0E0E0936200E1E0E51521F4EA
:1001D800E0916500EE7F06C0E2E0E51529F4E091C4
:1001E8006500ED7FE0936500E52DF0E03197EB5E6B
:1001F800FA4FE081F0E0309711F4EFE36BC0E130A3
:10020800A0E0FA0711F4E6E065C0E230A0E0FA07E2
:1002180011F4EBE55FC0E330A0E0FA0711F4EFE476
:1002280059C0E430A0E0FA0711F4E6E653C0E5301F
:10023800A0E0FA0711F4EDE64DC0E630A0E0FA07B9
:1002480011F4EDE747C0E730A0E0FA0711F4E7E062
:1002580041C0E830A0E0FA0711F4EFE73BC0E9300D
:10026800A0E0FA0711F4EFE635C0ED32A0E0FA0796
:1002780011F4E0E42FC0E236A0E0FA0711F4ECE74D
:1002880029C0E536A0E0FA0711F4E9E723C0E7360C
:10029800A0E0FA0711F4EDE31DC0EC36A0E0FA0780
:1002A80011F4E8E317C0EE36A0E0FA0711F4E4E52C
:1002B80011C0EF36A0E0FA0711F4ECE50BC0E03707
:1002C800A0E0FA0711F4E3E705C0E032A0E0FA077E
:1002D80019F4E0E0E0936200A42DBB27E52DF0E0DF
:1002E80031970E948405E17029F0E0916200E0688E
:1002F800E09362005394E3E0E51511F4E1E05E2E2B
:1003080008950A921A92FA926A937A938A939A9320
:10031800AA93BA93EA93FA93EFB7EA93F401319662
:100328004F013197E03AAFE0FA0711F58824992494
:10033800E72D7394E43609F47724A72DB0E0EAE0BA
:10034800F0E00E94A005E0931505A72DBB27EAE081
:10035800F0E00E94A505E0931605671421F4E091EA
:100368006500E46003C0E0916500EB7FE093650001
:1003780024DFE991EFBFF991E991B991A991999198
:10038800899179916991F9901990099018956997CF
:10039800E0E0EABBEBBBE7EFE7BBE0E1E8BBE0E0AE
:1003A800E4BBE5BBE1BBE2BBE2B9E3B9EFEFE09345
:1003B8006100E0E0E0936200E7E0E0936400E0E0E1
:1003C800E0936500E0BFEAE0E3BFE0E0E2BFE9EF09
:1003D800E1BFE0E0EFBDEEBDEDBDECBDE7BDE6BDC4
:1003E800EBBDEABDE9BDE8BDE0937900E093780094
:1003F800E5BDE4BDE3BDE0938B00E0938A00E093A4
:100408008900E0938800E0938100E0938000E09306
:100418008700E0938600E0938500E0938400E093F2
:100428008300E0938200E2E0E7BFE0E0E0937D0034
:10043800E0936A00EABFE9BFEBB9E0E9EAB9E6E0B0
:10044800E0939500E0E0E0939000E3E3E9B9E0E0B1
:10045800E0939A00E0E8E8B9E0E0E0BDE6B9EDB97C
:10046800E0937400E1E05E2EE4E0EA93EAD0789449
:1004780020FE6DC010E0E89420F8E2E0ED1589F563
:10048800DD2069F0E12F1F5FF0E0DE01EA0FFB1FBE
:10049800FF93EF937FDEAF91BF91EC93F1CFA881EB
:1004A800A03310F0AA3308F007C0A981A03310F0D8
:1004B800AA3308F001C001C00DC0E8810E941905E7
:1004C800AAE0EA02F001AE2FE9810E941905EA0FBD
:1004D8006E2E06C00E941C05E0E0F5E00E94220591
:1004E8001BC0E1E0ED1591F4A881A03310F0AA3308
:1004F80008F005C04FDE0E9419056E2E06C00E9446
:100508001C05E7E0F5E00E94220506C00E941C05D4
:10051800EEE0F5E00E942205E0E0EA93EA934AD093
:10052800FE013896FA93EA93E8EBF0E0FA93EA933F
:10053800E62DFF27662777270E94C90584E00E94D9
:10054800CE042896FE013896FA93EA936BD090CFA2
:10055800FFCFE881E07111F0C49A01C0C498E88126
:10056800E07211F0C59A01C0C598E881E07411F0F5
:10057800C69A01C0C698E881E07811F0C79A01C010
:10058800C79885E08A95F1F7C29A8DE08A95F1F7C8
:10059800C2988DE08A95F1F788C0E881EA93D9DF9F
:1005A800E881E295E883E881EA93D3DF85E88A95D4
:1005B800F1F77BC0E881F0E0E15EFA4FE081A981C4
:1005C800EA0FEA93EADFC980E881E09323052296DF
:1005D8000895E2E00E942E05ECE0EA93DEDFE1E018
:1005E8000E942E05E0E0E0932305CE2E0895A88111
:1005F800AA3021F0E0912405CE1668F0E0E0EA93F5
:10060800E0912305EF5FE0932305EA93D3DFA88108
:10061800AA3009F44AC0C394C09AE881EA93BDDFBE
:10062800C09843C01A93A981BA81ED91A983BA836E
:100638001E2FE03019F01A93DADFF5CF18812396D0
:100648000895BC9ABD9ABE9ABF9ABA9AB89AB99AAE
:10065800C298C098C198E881E0932405E058E093D7
:100668002105E881E054E0932205E4E1F0E0FA9303
:10067800EA930E9470050E9437050E9437050E9480
:100688003705E0E2EA9365DF88EC90E00197F1F73F
:10069800E8E2EA9382DFE4E0EA937FDFE5E8EA93C1
:1006A8007CDFE6E0EA9379DF94DF219608951A93D8
:1006B8000A93AA81BB8112960E94C105309759F10D
:1006C800AA81BB8114960E94C1058F01309761F001
:1006D8000230E0E01E07F0F0F80131978F01AA819F
:1006E800BB811496ED93FC93AA81BB811296ED9180
:1006F800FD913196FE93EE933197AC81A083AA8148
:10070800BB810E94C105FF232AF0ED91FD9131962E
:10071800FE93EE9306C0AA81BB81EFEFFFEFED9346
:10072800FC93198108812596089526970E94CE0585
:1007380010E0AC85BD85E0E0F0E0ED93FC93EA893C
:10074800FB893196EA8BFB8B3197E4912E2FE030B1
:1007580011F40C94C604E12FE03039F4253211F479
:1007680011E002C00E9440050CC1E130A9F4253215
:1007780019F40E94400504C112E040E000E02D3267
:1007880011F401E0FEC02B3211F44BE2FAC0203222
:1007980011F440E2F6C002C0E23039F450E013E050
:1007A800203311F40068EDC004C0E33011F00C945C
:1007B800C504203310F02A3308F007C0AAE05A9F76
:1007C800502DE22FE0535E0FDCC0E22FE33649F4F0
:1007D8000E944905E889F989A481AA930E944F05D6
:1007E800CFC0E33741F40E9449050E9457050E9493
:1007F80004051E2F0AC0E03761F40E9449050E94D3
:1008080057050E940E051E2F086002600F7730E022
:1008180035C0E43611F0E93611F4046002C0E5375A
:1008280031F4ECE8F0E0EE83FF8315E00DC0E83525
:1008380011F4086004C0E83711F00C94C404E6E928
:10084800F0E0EE83FF8314E002FF14C00E94490524
:100858000E946105AB85AA233AF4EA85FB850E94CC
:100868008005EA87FB874DE2403011F01F5F01C029
:100878000B7F04C00E9449050E94610500FD11C05C
:10088800151778F407FF08C002FF04C00B7F242F58
:10089800115001C020E301C020E20E9440055150E0
:1008A800EFCF312F01FF17C03030A1F003FF06C092
:1008B800EE81FF812591EE83FF8305C0AE81BF8164
:1008C8002D91AE83BF830E944005503009F05150EE
:1008D8003150EACF4BC020E3EE81FF810E94C5056D
:1008E800E887F987EE81FF813296EE83FF83E885FA
:1008F800F985AA85BB85AE17BF0750F02F5FA8857D
:10090800B985EA85FB85EA1BFB0BEA87FB87EFCFF6
:100918002A3328F003FF02C0295F01C0295D04FDC6
:100928001AC0213320F4A885B985119709F409C0A4
:10093800531710F000FF01C013C020E207FF0BC0DF
:1009480020E3006102FF07C00B7F4A930E944F0516
:10095800503009F051500E944005503009F0515074
:100968003150A885B985129708F0B5CF00FF08C0A7
:10097800503031F05150E0E2EA930E944F05F8CF31
:1009880010E0DDCEAC85BD850E94C1050E94D5056D
:1009980064960895FF92F82E26970E94D0050E942B
:1009A8006905309719F4EFEFFFEF25C0DE011696C1
:1009B8000E947C058D010E946905EE83FF83E0E0BB
:1009C800E887E987DE011A960E947C050E94C10526
:1009D800FA93EA931A930A93EBE5F3E0FA93EA930E
:1009E800FE013A96FA93EA93A0DE9F01AE81BF8199
:1009F800E0E0EC93F9010E94D7052A96FF9008954C
:100A0800A991B991EE27FF276D91662311F03196D0
:100A1800FBCF0895AA27BB27E991F99105900020FB
:100A280011F01196FBCFFD010895F0E0F0970895BD
:100A3800E0E0EA93E1E0EA930C94DE02FA93EA93A9
:100A48000E941603E8EEF3E0FA93EA930E94700519
:100A58000C94ED02EA930E94D102E3E0F0E0FA93ED
:100A6800EA930C947005E0E3EA930E94AD0288ECE7
:100A780090E00197F1F708952A93ED85FE85FA93A2
:100A8800EA93E989FA8909950895E889F9893497F3
:100A9800E88BF98B0895ED85FE85FA93EA93E98949
:100AA800FA8909950895A889B98914960E94C105FB
:100AB800EE83FF83FA93EA930895A889B989149677
:100AC8000E94C105EA87FB870895DE011C960E94F3
:100AD8007C050E94C1050895E991F991309639F095
:100AE80080ED97E00197F1F7A8953197C9F7089538
:100AF8000024AF0DB01D0895F195E195F0400895DB
:100B0800EE230E2EFD0121F0F595E7950A94E1F705
:100B180008950024112490E1AA0FBB1F001C111C8A
:100B28000E1A1F0A18F40E0E1F1E01C0A1609A9516
:100B380099F7FD01D001089512D0EBDF0EF4DCDF48
:100B48000895E894B7FF04C0A095B09511966894ED
:100B5800F7FDD2DFDEDFFD010EF4CEDF0895E89465
:100B6800F7FF02C0C9DF6894B7FF06C0A095B0952B
:100B7800119600F8039400FA0895ED91FC911197ED
:100B880008950590F491E02D08957A936A93FA9365
:100B9800EA9308955A934A933A932A931A930A9395
:100BA80008955D814C813B812A81198108810895CE
:00000001FF
