:0E0000000C9473000C9400000C9400000C94FF
:10000E0000000C9400000C9400000C9400000C9462
:10001E0000000C9400000C9400000C9400000C9452
:10002E0000000C9400000C9400000C9400000C9442
:10003E0082010C9400000C9400000C94A3000C940C
:10004E0000000C9400000C9400000C9400000C9422
:10005E0000000C9400000C9400000C9400000C9412
:10006E0000000C9400000C9400000C9400000C9402
:10007E0000000C9400000C9400000C94000010275B
:10008E00E80364000A0001000010000110000100E6
:10009E000000000005000000000000004552524F15
:1000AE005232006572726F72310025303264200058
:1000BE0080C0010002009E000A000300A00007009D
:1000CE000005AA0007000705AA0007000E05B100EB
:1000DE0002001F05BE000000F894EE27ECBBF1E015
:1000EE00F5BFE5BFE0936C008DE0A2E0BB27ED937A
:1000FE008A95E9F780E090E1A0E0B1E0ED930197F9
:10010E00E9F7E0ECF0E085919591009761F0A5910B
:10011E00B59105901590BF01F00105900D920197D4
:10012E00E1F7FB01F0CF8BBFEFEFEDBFE0E1EEBFEC
:10013E00C0E0D5E00C94CA01EA93FA93EFB7EA93C4
:10014E001A930A931BB10CB1E12FEC71B1F40D307F
:10015E0091F0EA2DA394F0E0E95EFA4F0083E8E017
:10016E00EA1509F4AA24C394E8E0EC1519F4CC249A
:10017E00689421F802C0689420F809911991E991C8
:10018E00EFBFF991E99118951A93CC20F1F3E92D6F
:10019E009394F0E0E95EFA4F1081E8E0E91509F476
:1001AE009924F894CA947894E12F19910895E091C6
:1001BE006500E360E0936500E0E0E0936200E1E05B
:1001CE00E41521F4E0916500EE7F06C0E2E0E4154F
:1001DE0029F4E0916500ED7FE0936500E42DF0E0F9
:1001EE003197EB5EFA4FE081F0E0309711F4EFE3D8
:1001FE006BC0E130A0E0FA0711F4E6E065C0E23032
:10020E00A0E0FA0711F4EBE55FC0E330A0E0FA07D7
:10021E0011F4EFE459C0E430A0E0FA0711F4E6E679
:10022E0053C0E530A0E0FA0711F4EDE64DC0E6301C
:10023E00A0E0FA0711F4EDE747C0E730A0E0FA07B7
:10024E0011F4E7E041C0E830A0E0FA0711F4EFE75F
:10025E003BC0E930A0E0FA0711F4EFE635C0ED320D
:10026E00A0E0FA0711F4E0E42FC0E236A0E0FA07AE
:10027E0011F4ECE729C0E536A0E0FA0711F4E9E73E
:10028E0023C0E736A0E0FA0711F4EDE31DC0EC360B
:10029E00A0E0FA0711F4E8E317C0EE36A0E0FA0783
:1002AE0011F4E4E511C0EF36A0E0FA0711F4ECE525
:1002BE000BC0E037A0E0FA0711F4E3E705C0E03227
:1002CE00A0E0FA0719F4E0E0E0936200A32DBB274B
:1002DE00E42DF0E031970E946F05E17029F0E09176
:1002EE006200E068E09362004394E3E0E41511F4E9
:1002FE00E1E04E2E08950A921A92FA926A937A9338
:10030E008A939A93AA93BA93EA93FA93EFB7EA93DE
:10031E00E72DF82D31967E2E8F2E3197E03AAFE0F5
:10032E00FA0711F577248824E62D6394E93109F450
:10033E006624A62DB0E0EAE0F0E00E948B05E09383
:10034E001505A62DBB27EAE0F0E00E949005E0938C
:10035E001605561421F4E0916500E46003C0E091A7
:10036E006500EB7FE093650022DFE991EFBFF99125
:10037E00E991B991A9919991899179916991F990A0
:10038E001990099018956997E0E0EABBEBBBE7BBC3
:10039E00E8BBE4BBE5BBE1BBE2BBE2B9E3B9EFEF1F
:1003AE00E0936100E0E0E0936200E7E0E093640038
:1003BE00E0E0E0936500E0BFEAE0E3BFE0E0E2BF2B
:1003CE00E9EFE1BFE0E0EFBDEEBDEDBDECBDE7BD99
:1003DE00E6BDEBBDEABDE9BDE8BDE0937900E09373
:1003EE007800E5BDE4BDE3BDE0938B00E0938A00A9
:1003FE00E0938900E0938800E0938100E093800011
:10040E00E0938700E0938600E0938500E0938400FC
:10041E00E0938300E0938200E2E0E7BFE0E0E09348
:10042E007D00E0936A00EABFE9BFEBB9E0E9EAB903
:10043E00E6E0E0939500E0E0E0939000E3E3E9B9B5
:10044E00E0E0E0939A00E0E8E8B9E0E0E0BDE6B96C
:10045E00EDB9E0937400E1E04E2EA0E1E4D0789483
:10046E0020FE7AC010E0E89420F8E2E0EC15A9F541
:10047E00CC2069F0E12F1F5FF0E0DE01EA0FFB1FD9
:10048E00FF93EF9381DEAF91BF91EC93F1CFA881F3
:10049E00A03310F0AA3308F007C0A981A03310F0E2
:1004AE00AA3308F001C001C00BC0E881E053AAE0F6
:1004BE00EA02F001AE2FE981E053EA0F5E2E0CC086
:1004CE00E0E0EA93A1E06AD0A0E0B5E09BD0A8EE10
:1004DE00B3E00E945D056FD026C0E1E0EC15B9F4E3
:1004EE00A881A03310F0AA3308F004C04DDEE0530B
:1004FE005E2E0CC0E0E0EA93A1E050D0A7E0B5E09C
:10050E0081D0A8EEB3E00E945D0555D00CC0E0E0AE
:10051E00EA93A1E043D0AEE0B5E074D0A8EEB3E02C
:10052E000E945D0548D0E0E0EA93A0E037D0FE01DE
:10053E003896FA93EA93E8EBF0E0FA93EA93E52D16
:10054E00FF27662777270E94B40584E00E940805DE
:10055E002896DE01189656D083CFFFCFAA93E2B32A
:10056E00EF70AE2FE881E07FEA2BE2BB8DE08A953B
:10057E00F1F7929A8DE08A95F1F792988DE08A952F
:10058E00F1F789C0AA93A881E9DFE881E295E883B3
:10059E00A881E4DF85E88A95F1F77DC0AA93E8810A
:1005AE00F0E0E15EFA4FE081A981AE0FEBDFB9809A
:1005BE00E88022960895A2E0E5DFA3E0B0E00E9475
:1005CE005D05ACE0DFDFA1E0DDDFA3E0B0E00E947F
:1005DE005D05E0E0EE2EBE2E0895AA93A881AA3006
:1005EE0011F0BD1448F0E0E0EA93E394AE2DD6DFAF
:1005FE00A881AA3009F44FC0B394909AA881C2DFA3
:10060E00909849C0BA93AA931A93A981BA81ED9191
:10061E00A983BA831E2FE03019F0A12FDEDFF5CFAC
:10062E00188123960895AA93E1B3E06FE1BB8A9AED
:10063E00889A899A929890989198D880E881E058F3
:10064E00E0932105E881E054E0932205A4E1B0E0B7
:10065E000E945D05A0E382DF88EC90E00197F1F740
:10066E00A0E37CDF88EC90E00197F1F7A0E376DF62
:10067E0088EC90E00197F1F7A0E270DF88EC90E053
:10068E000197F1F7A8E27EDFA4E07CDFA5E87ADF30
:10069E00A6E078DF90DF21960895BA93AA931A9375
:1006AE000A93AA81BB8112960E94AC05309759F12C
:1006BE00AA81BB8114960E94AC058F01309761F020
:1006CE000230E0E01E0798F0F80131978F01AA8101
:1006DE00BB811496ED93FC93AA81BB811296ED918A
:1006EE00FD913196FE93EE933197AC81A083AA8152
:1006FE00BB810E94AC05FF232AF0ED91FD9131964E
:10070E00FE93EE9306C0AA81BB81EFEFFFEFED9350
:10071E00FC931981088125960895BA93AA9326977A
:10072E000E94B90510E0AC85BD85E0E0F0E0ED93E8
:10073E00FC93EA89FB893196EA8BFB8B3197E49126
:10074E002E2FE03009F455C1E12FE03059F4253257
:10075E0011F411E006C02A93AD85BE85EF85F889A8
:10076E00099546C1E130C9F4253239F42A93AD8595
:10077E00BE85EF85F88909953AC112E040E000E0A8
:10078E002D3211F401E034C12B3211F44BE230C1A1
:10079E00203211F440E22CC102C0E23039F450E0B4
:1007AE0013E0203311F4006823C103C0E33009F0D5
:1007BE001FC1203310F02A3308F007C0AAE05A9F59
:1007CE00502DE22FE0535E0F13C1E22FE33669F492
:1007DE00E889F9893497E88BF98BA481AA93AD85C2
:1007EE00BE85EF85F889099502C1E33791F4E88952
:1007FE00F9893497E88BF98BA889B98914960E94E8
:10080E00AC05EE83FF83AE81BF810E9444051E2F8F
:10081E0014C0E037B1F4E889F9893497E88BF98B85
:10082E00A889B98914960E94AC05EE83FF83AE8128
:10083E00BF810E9450051E2F086002600F7730E0C6
:10084E0042C0E43611F0E93611F4046002C0E53717
:10085E0031F4ECE8F0E0EE83FF8315E00CC0E835F0
:10086E0011F4086003C0E83709F0C1C0E6E9F0E012
:10087E00EE83FF8314E002FF1AC0E889F9893497EA
:10088E00E88BF98BA889B98914960E94AC05EA8782
:10089E00FB87AB85AA232AF40E946B05EA87FB87A8
:1008AE004DE2403011F01F5F01C00B7F0CC0E88994
:1008BE00F9893497E88BF98BA889B98914960E9427
:1008CE00AC05EA87FB8700FD15C0151798F407FFE6
:1008DE0008C002FF04C00B7F242F115001C020E37B
:1008EE0001C020E22A93AD85BE85EF85F889099572
:1008FE005150EBCF312F01FF1BC03030C1F003FF41
:10090E0006C0EE81FF812591EE83FF8305C0AE8187
:10091E00BF812D91AE83BF832A93AD85BE85EF85B2
:10092E00F8890995503009F051503150E6CF52C038
:10093E0020E3EE81FF810E94B005E887F987EE8102
:10094E00FF813296EE83FF83E885F985AA85BB8504
:10095E00AE17BF0750F02F5FA885B985EA85FB85D6
:10096E00EA1BFB0BEA87FB87EFCF2A3328F003FF46
:10097E0002C0295F01C0295D04FD1DC0213320F492
:10098E00A885B985119709F409C0531710F000FF17
:10099E0001C01AC020E207FF0EC020E3006102FF73
:1009AE000AC00B7F4A93AD85BE85EF85F889099500
:1009BE00503009F051502A93AD85BE85EF85F889E8
:1009CE000995503009F051503150A885B9851297CC
:1009DE0008F0AECF00FF0BC0503049F05150E0E2AE
:1009EE00EA93AD85BE85EF85F8890995F5CF10E0C0
:1009FE00A0CEAC85BD850E94AC050E94C005649654
:100A0E000895FF92F82E26970E94BB05DE011C96D4
:100A1E000E9467050E94AC05309719F4EFEFFFEFC7
:100A2E0027C0DE0116960E9467058D01DE011C9619
:100A3E000E9467050E94AC05EE83FF83E0E0E88725
:100A4E00E987DE011A960E9467050E94AC05FA93AB
:100A5E00EA931A930A93E4E5F3E0FA93EA93DE013C
:100A6E001A965BDE9F01AE81BF81E0E0EC93F90147
:100A7E000E94C2052A96FF900895BA93AA93A9914F
:100A8E00B991EE27FF276D91662311F03196FBCFBA
:100A9E000895BA93AA93AA27BB27E991F9910590D5
:100AAE00002011F01196FBCFFD010895109639F03C
:100ABE0080ED97E00197F1F7A8951197C9F7089582
:100ACE000024AF0DB01D0895F195E195F040089505
:100ADE00EE230E2EFD0121F0F595E7950A94E1F730
:100AEE0008950024112490E1AA0FBB1F001C111CB5
:100AFE000E1A1F0A18F40E0E1F1E01C0A1609A9541
:100B0E0099F7FD01D001089512D0EBDF0EF4DCDF72
:100B1E000895E894B7FF04C0A095B0951196689417
:100B2E00F7FDD2DFDEDFFD010EF4CEDF0895E8948F
:100B3E00F7FF02C0C9DF6894B7FF06C0A095B09555
:100B4E00119600F8039400FA0895ED91FC91119717
:100B5E0008950590F491E02D08957A936A93FA938F
:100B6E00EA9308955A934A933A932A931A930A93BF
:100B7E0008955D814C813B812A81198108810895F8
:00000001FF
